{
  "_format": "hh-sol-artifact-1",
  "contractName": "Keyboards",
  "sourceName": "contracts/Keyboards.sol",
  "abi": [
    {
      "inputs": [
        {
          "internalType": "enum Keyboards.KeyboardKind",
          "name": "_kind",
          "type": "uint8"
        },
        {
          "internalType": "bool",
          "name": "_isPBT",
          "type": "bool"
        },
        {
          "internalType": "string",
          "name": "_filter",
          "type": "string"
        }
      ],
      "name": "create",
      "outputs": [],
      "stateMutability": "nonpayable",
      "type": "function"
    },
    {
      "inputs": [
        {
          "internalType": "uint256",
          "name": "",
          "type": "uint256"
        }
      ],
      "name": "createdKeyboards",
      "outputs": [
        {
          "internalType": "enum Keyboards.KeyboardKind",
          "name": "kind",
          "type": "uint8"
        },
        {
          "internalType": "bool",
          "name": "isPBT",
          "type": "bool"
        },
        {
          "internalType": "string",
          "name": "filter",
          "type": "string"
        },
        {
          "internalType": "address",
          "name": "owner",
          "type": "address"
        }
      ],
      "stateMutability": "view",
      "type": "function"
    },
    {
      "inputs": [],
      "name": "getKeyboards",
      "outputs": [
        {
          "components": [
            {
              "internalType": "enum Keyboards.KeyboardKind",
              "name": "kind",
              "type": "uint8"
            },
            {
              "internalType": "bool",
              "name": "isPBT",
              "type": "bool"
            },
            {
              "internalType": "string",
              "name": "filter",
              "type": "string"
            },
            {
              "internalType": "address",
              "name": "owner",
              "type": "address"
            }
          ],
          "internalType": "struct Keyboards.KeyBoard[]",
          "name": "",
          "type": "tuple[]"
        }
      ],
      "stateMutability": "view",
      "type": "function"
    },
    {
      "inputs": [
        {
          "internalType": "uint256",
          "name": "_index",
          "type": "uint256"
        }
      ],
      "name": "tip",
      "outputs": [],
      "stateMutability": "payable",
      "type": "function"
    }
  ],
  "bytecode": "0x608060405234801561001057600080fd5b50610c19806100206000396000f3fe60806040526004361061003f5760003560e01c806352810aa114610044578063778bc8471461006f578063d80ad431146100af578063e8b69bc3146100d8575b600080fd5b34801561005057600080fd5b506100596100f4565b60405161006691906108d7565b60405180910390f35b34801561007b57600080fd5b5061009660048036038101906100919190610939565b610291565b6040516100a694939291906109dd565b60405180910390f35b3480156100bb57600080fd5b506100d660048036038101906100d19190610adf565b610393565b005b6100f260048036038101906100ed9190610939565b61050f565b005b60606000805480602002602001604051908101604052809291908181526020016000905b8282101561028857838290600052602060002090600302016040518060800160405290816000820160009054906101000a900460ff1660038111156101605761015f610672565b5b600381111561017257610171610672565b5b81526020016000820160019054906101000a900460ff161515151581526020016001820180546101a190610b82565b80601f01602080910402602001604051908101604052809291908181526020018280546101cd90610b82565b801561021a5780601f106101ef5761010080835404028352916020019161021a565b820191906000526020600020905b8154815290600101906020018083116101fd57829003601f168201915b505050505081526020016002820160009054906101000a900473ffffffffffffffffffffffffffffffffffffffff1673ffffffffffffffffffffffffffffffffffffffff1673ffffffffffffffffffffffffffffffffffffffff168152505081526020019060010190610118565b50505050905090565b600081815481106102a157600080fd5b90600052602060002090600302016000915090508060000160009054906101000a900460ff16908060000160019054906101000a900460ff16908060010180546102ea90610b82565b80601f016020809104026020016040519081016040528092919081815260200182805461031690610b82565b80156103635780601f1061033857610100808354040283529160200191610363565b820191906000526020600020905b81548152906001019060200180831161034657829003601f168201915b5050505050908060020160009054906101000a900473ffffffffffffffffffffffffffffffffffffffff16905084565b600060405180608001604052808660038111156103b3576103b2610672565b5b8152602001851515815260200184848080601f016020809104026020016040519081016040528093929190818152602001838380828437600081840152601f19601f8201169050808301925050505050505081526020013373ffffffffffffffffffffffffffffffffffffffff168152509050600081908060018154018082558091505060019003906000526020600020906003020160009091909190915060008201518160000160006101000a81548160ff0219169083600381111561047d5761047c610672565b5b021790555060208201518160000160016101000a81548160ff02191690831515021790555060408201518160010190805190602001906104be9291906105a3565b5060608201518160020160006101000a81548173ffffffffffffffffffffffffffffffffffffffff021916908373ffffffffffffffffffffffffffffffffffffffff16021790555050505050505050565b600080828154811061052457610523610bb4565b5b906000526020600020906003020160020160009054906101000a900473ffffffffffffffffffffffffffffffffffffffff1690508073ffffffffffffffffffffffffffffffffffffffff166108fc349081150290604051600060405180830381858888f1935050505015801561059e573d6000803e3d6000fd5b505050565b8280546105af90610b82565b90600052602060002090601f0160209004810192826105d15760008555610618565b82601f106105ea57805160ff1916838001178555610618565b82800160010185558215610618579182015b828111156106175782518255916020019190600101906105fc565b5b5090506106259190610629565b5090565b5b8082111561064257600081600090555060010161062a565b5090565b600081519050919050565b600082825260208201905092915050565b6000819050602082019050919050565b7f4e487b7100000000000000000000000000000000000000000000000000000000600052602160045260246000fd5b600481106106b2576106b1610672565b5b50565b60008190506106c3826106a1565b919050565b60006106d3826106b5565b9050919050565b6106e3816106c8565b82525050565b60008115159050919050565b6106fe816106e9565b82525050565b600081519050919050565b600082825260208201905092915050565b60005b8381101561073e578082015181840152602081019050610723565b8381111561074d576000848401525b50505050565b6000601f19601f8301169050919050565b600061076f82610704565b610779818561070f565b9350610789818560208601610720565b61079281610753565b840191505092915050565b600073ffffffffffffffffffffffffffffffffffffffff82169050919050565b60006107c88261079d565b9050919050565b6107d8816107bd565b82525050565b60006080830160008301516107f660008601826106da565b50602083015161080960208601826106f5565b50604083015184820360408601526108218282610764565b915050606083015161083660608601826107cf565b508091505092915050565b600061084d83836107de565b905092915050565b6000602082019050919050565b600061086d82610646565b6108778185610651565b93508360208202850161088985610662565b8060005b858110156108c557848403895281516108a68582610841565b94506108b183610855565b925060208a0199505060018101905061088d565b50829750879550505050505092915050565b600060208201905081810360008301526108f18184610862565b905092915050565b600080fd5b600080fd5b6000819050919050565b61091681610903565b811461092157600080fd5b50565b6000813590506109338161090d565b92915050565b60006020828403121561094f5761094e6108f9565b5b600061095d84828501610924565b91505092915050565b61096f816106c8565b82525050565b61097e816106e9565b82525050565b600082825260208201905092915050565b60006109a082610704565b6109aa8185610984565b93506109ba818560208601610720565b6109c381610753565b840191505092915050565b6109d7816107bd565b82525050565b60006080820190506109f26000830187610966565b6109ff6020830186610975565b8181036040830152610a118185610995565b9050610a2060608301846109ce565b95945050505050565b60048110610a3657600080fd5b50565b600081359050610a4881610a29565b92915050565b610a57816106e9565b8114610a6257600080fd5b50565b600081359050610a7481610a4e565b92915050565b600080fd5b600080fd5b600080fd5b60008083601f840112610a9f57610a9e610a7a565b5b8235905067ffffffffffffffff811115610abc57610abb610a7f565b5b602083019150836001820283011115610ad857610ad7610a84565b5b9250929050565b60008060008060608587031215610af957610af86108f9565b5b6000610b0787828801610a39565b9450506020610b1887828801610a65565b935050604085013567ffffffffffffffff811115610b3957610b386108fe565b5b610b4587828801610a89565b925092505092959194509250565b7f4e487b7100000000000000000000000000000000000000000000000000000000600052602260045260246000fd5b60006002820490506001821680610b9a57607f821691505b60208210811415610bae57610bad610b53565b5b50919050565b7f4e487b7100000000000000000000000000000000000000000000000000000000600052603260045260246000fdfea264697066735822122010dbe499309e43b95a2497b696b48e5518bc6b02e5e69582f7dc62c46d77e61164736f6c63430008090033",
  "linkReferences": {},
  "deployedLinkReferences": {}
}